:020000040800F2
:10000000C0080020DD0200081B3800081D3700086A
:1000100019380008671F00089D3F00080000000015
:10002000000000000000000000000000D13A0008BD
:10003000FD1F0008000000001D380008D33A00082A
:10004000F7020008F7020008F7020008F7020008AC
:10005000F7020008F7020008F7020008F70200089C
:10006000F7020008F7020008F7020008F70200088C
:10007000F7020008F7020008F7020008F70200087C
:10008000691F0008751F0008F7020008F702000842
:10009000F7020008F7020008F7020008F70200085C
:1000A000F7020008F7020008F7020008F70200084C
:1000B000F7020008F7020008F7020008F70200083C
:1000C000F7020008F7020008F7020008F70200082C
:1000D000F7020008F7020008853F0008913F00087A
:1000E000F7020008F7020008F7020008F70200080C
:1000F000F7020008F7020008F7020008F7020008FC
:10010000F7020008F7020008F7020008F7020008EB
:10011000F7020008F7020008F7020008F7020008DB
:10012000F7020008F7020008F7020008F7020008CB
:10013000F7020008F7020008F7020008F7020008BB
:10014000F7020008F7020008F7020008F7020008AB
:10015000F7020008F7020008F7020008F70200089B
:10016000F7020008F7020008F7020008F70200088B
:10017000F7020008F7020008F7020008000000007C
:10018000F7020008F702000800F002F800F096F805
:100190000AA090E8000C82448344AAF10107DA45E2
:1001A00001D100F08BF8AFF2090EBAE80F0013F09E
:1001B000010F18BFFB1A43F001031847285A00002B
:1001C000485A0000103A24BF78C878C1FAD85207BC
:1001D00024BF30C830C144BF04680C6070470000C1
:1001E0000023002400250026103A28BF78C1FBD840
:1001F000520728BF30C148BF0B6070476E2900F01E
:10020000B382702900F0F583662905F0C482652960
:1002100005F0C182672905F0BE82612905F0BD8223
:1002200003681B0A28BF41F08001692900F0608241
:10023000642900F05D82752900F05A826F2900F070
:100240008283782900F0C183E92900F01D83E42925
:1002500000F01A83F52900F01783EF2900F07F835F
:10026000F82900F0C0830368DB0928BF41F0800152
:10027000632901F0E580732901F0EA80E32901F0A8
:10028000F580F32901F0FA80002070471FB505F0D2
:1002900078FA9DE8030000F087F901F049F90400BD
:1002A0000020002104F05AFD401C60600020002165
:1002B00004F03EFDE0601FBD10B510BD01F00AF96D
:1002C0001146FFF7E3FF04F041FB01F0E7F903B447
:1002D000FFF7F2FF03BC01F017FA0000094880475E
:1002E00009480047FEE7FEE7FEE7FEE7FEE7FEE718
:1002F000FEE7FEE7FEE7FEE704480549054A064B30
:1003000070470000653B000889010008C00200201A
:10031000C0080020C0040020C004002070B50646BC
:1003200000F026F9056806F10B0020F00704B4423E
:100330009CBF002070BD2B466A68BAB11068A0420D
:1003400010D304F1080188423CBF5068586007D3BD
:100350005168101941601168091B016058601460F0
:10036000101D70BD13465268002AE7D12146284669
:1003700000F006F90028DED170BD70B50446051FF7
:1003800000F0F6F80068002C14BF446870BD002C23
:1003900018BFAC423CBF20466468F8D301680A1815
:1003A000AA4218BF456003D12A680546114401607E
:1003B00028684119A1421CBF6C6070BD616869600A
:1003C00021680844286070BD53EA020C00F069807F
:1003D0002DE9F04B4FF00006002B1FBFB3FA83F559
:1003E00003FA05F424FA05F65E4012BF1643B2FA8A
:1003F00082F502FA05F4C5F120051EBF22FA05FCBC
:1004000044EA0C04203556EA044C4FEA144418BF61
:10041000641C4FF000084FF00009904271EB030C90
:1004200039D3002919BFB1FA81F701FA07F6B0FAFA
:1004300080F700FA07F6C7F120071EBF20FA07FC75
:1004400046EA0C062037B6FBF4FCA7EB0507103F85
:1004500007F01F0BCBF120060CFA0BFB2CFA06F66B
:1004600044BFB3460026202FA4BF5E464FF0000BCA
:100470005BEA060C08BF4FF0010B19EB0B09ABFB55
:10048000027C48EB0608C01B06FB02CC0BFB03CC2E
:1004900071EB0C01C1E70B46024641464846BDE8F8
:1004A000F08B13B54FF000004FF00001AFF3008068
:1004B000BDE81C40704700001CB50C46064B7B4451
:1004C00069460090204600F068F90446002069461D
:1004D00000F076F920461CBDFF02000010B5431C59
:1004E00002E010F8011B71B18107FAD14FF001321F
:1004F00002C88C1A8C4314EAC211F9D0C01A0A0639
:1005000003D0C01E10BDC01A10BD0A0401D0801E49
:1005100010BD0902FCD0401E10BD4FF0000200B516
:10052000134694469646203922BFA0E80C50A0E816
:100530000C50B1F12001BFF4F7AF090728BFA0E8C4
:100540000C5048BF0CC05DF804EB890028BF40F890
:10055000042B08BF704748BF20F8022B11F0804FD2
:1005600018BF00F8012B70477047704770470000B4
:10057000004870476402002070477047704770471A
:1005800038B504460A4600206946AFF300800028CB
:1005900008BF38BD02460099204600F001FB01204B
:1005A00038BD012000F08EBFF8B5AFF300800546DE
:1005B00000200C46102000BF0646A819A0420DD905
:1005C000324669460020AFF30080070008BF00F004
:1005D00079FF0098A04218BF0546C419FFF7C8FF6D
:1005E00005600746F01D20F007004619284600F078
:1005F0000AF8B44208BFF8BDA21B31463868BDE80E
:10060000F84000F0CDBA00210160C0E90110704748
:100610001020704710B500F0BFFA006810BD10B58B
:10062000044600F0B9FA046010BD70B5044685694F
:100630000068C10601D5302600E02026C00707D09B
:1006400070BDD4E9012130469047206A401C2062E9
:100650006D1EF6D570BD70B5044685690078C0077B
:1006600007D170BDD4E9012120209047206A401CA9
:1006700020626D1EF6D570BD09684A0501D540B2ED
:100680007047C905FCD500B2704709684A0501D515
:10069000C0B27047C905FCD580B2704770B50C4632
:1006A0000546012A05D02878800600D5EA6900238E
:1006B00002E0012305E05B1C934202D2E05C0028CB
:1006C000F9D1A869E618C01AA861286A18442862F6
:1006D0002846FFF7AAFF04E0D5E9012114F8010B31
:1006E0009047B442F8D32846FFF7B5FF70BD00002D
:1006F0002DE9F0410646002410687529314616A5FB
:1007000010D0FFF7B9FF002802DA404213A507E036
:1007100031688A0701D512A502E0490704D511A561
:10072000012401E0FFF7B1FF00210A2206F12407AE
:1007300009E0B0FBF2FCB0FBF2F302FB1C0030302E
:1007400078541846491C0028F3D123462A463046DF
:10075000BDE8F04100F083BA000000002D00000069
:100760002B0000002000000011680268006A530599
:1007700001D508700AE0D30501D5088006E013060C
:1007800003D5C217C1E9000200E0086001207047EC
:1007900001694A1C02610878704700B58FB0CDE945
:1007A00001310021059105497944CDE90310114635
:1007B000684600F029F90FB000BD0000E5FFFFFF1B
:1007C0000A6802F8010B0A60704700002DE9FF5F1C
:1007D00015468A460446DFF8AC80F8440027D8E97D
:1007E00000103E46CDE9001010E03AF816106A46B7
:1007F00002A800F047FE411C07D02178890603D5E6
:10080000E269391891420DD80744761C2078800699
:1008100002D5E069B84205DDAE42E6DB3AF81600E3
:100820000028E2D1A069C01BA0612046FFF7FDFEB1
:10083000D8E90010CDE90010002017E03AF81810B0
:100840006A4602A800F01EFEB0F1FF3F81460BD0C1
:1008500000250DF1080B05E0D4E901211BF8050086
:1008600090476D1C4D45F7D308F10100B04280461A
:10087000E4DB206A384420622046FFF7ECFEBDE846
:10088000FF9F0000E25100002DE9F0418046D21D9B
:1008900022F007020025D2E90002F52915A614D09E
:1008A000011E72F1000106DA0023D0EB030063EBB6
:1008B000020211A608E0D8F800108B0701D50FA698
:1008C00002E0490701D50EA601251146002408F1D2
:1008D000240704E000F07EF930323A55641C50EAF7
:1008E0000102F7D12B46324621464046BDE8F04191
:1008F00000F0B5B9000000002D0000002B00000042
:100900002000000030B4002100F1240408E002F0CF
:100910000705D208303542EA4372DB086554491CAA
:1009200052EA0305F3D10468002310A2250707D576
:10093000A40600D421B1C46901230DA2641EC461C0
:1009400030BC00F08CB910B5044621461068FFF7A2
:100950009CFE02462046BDE810400023D2E7D21D8F
:1009600022F00701D1E90023CCE7000000000000DD
:1009700030000000F0B40D460188090502D5214C75
:100980007C4402E01F4C7C440E34002100F124061C
:1009900008E002F00F071209E75D42EA03721B0943
:1009A0007754491C52EA0307F3D102780023120757
:1009B00004D5702D06D009B1022311342246F0BCB3
:1009C00000F04DB901231034F8E770B504460D4628
:1009D00021461068FFF759FE024629462046BDE829
:1009E00070400023C6E7D21D22F00703D3E900239D
:1009F000C0E70368126843F0200303600823C36163
:100A00000023B7E7445000002DE9F05F8946044613
:100A10004FF0000ADFF874B1FB44C0F820A0204674
:100A2000E1688847002874D0252806D0D4E9012140
:100A30009047206A401C2062F1E700265F4620466E
:100A4000E16888472028054607DB312D05D2781953
:100A500010F8200C08B10643F1E7B00701D526F0E5
:100A60000406C4F81CA00027C4F818A02A2D09D039
:100A7000284603F035FF38B304EB8708303DC8F84B
:100A8000185019E059F8041B204604EB87029161C5
:100A9000E1688847012F054618D1E069002820DA6F
:100AA00026F020061DE0D8F8180000EB800005EBCA
:100AB00040003038C8F818002046E16888470546ED
:100AC00003F00EFF0028EED1012F0AD02E2D08D101
:100AD0002046E16888477F1C0546022F46F0200625
:100AE000C4DBA069002803DA404246F00106A06199
:100AF000F00701D026F010066C2D0BD0682D09D020
:100B00004C2D39D06A2D35D0742D35D07A2D33D077
:100B100016E038E0E1682F4620468847B84205468F
:100B200009D16C2F26D04FF48060E168064320463F
:100B30008847054604E06C2F1AD04FF480700643B6
:100B40000DB3A5F14100192802D8203546F40066FE
:100B50004A462946204626604E46FFF74FFB80B1A5
:100B600001280BD0F61D26F0070000F1080956E712
:100B70004020E4E78020D8E70020D6E706F104090A
:100B80004DE7284652E7206ABDE8F09FD44F0000A9
:100B9000004870475C020020004870475C0200205B
:100BA000034640688C46002818BF88423CBF034675
:100BB0004068F8D318681844884207D00CF1030045
:100BC00020F00700001D411A521A0146081D0A6054
:100BD000FFF7D3BB30B5B0F10A024FEA900E71F1C6
:100BE00000034EEA817EB0EB0E0061EB91014FEA0B
:100BF000101E4EEA017E10EB0E0041EB11114FEA80
:100C0000102E4EEA016E10EB0E0041EB11214FEA5F
:100C1000104E4EEA014E10EB0E0041EB1141401810
:100C200041F100014FEAD00040EA41704FEAD101A2
:100C300010EB80054FEA810444EA907444EB010410
:100C40006D1944EB0404521BA3414FF0000348BF4D
:100C50000A3200D530BD401C41F1000130BD2DE904
:100C6000F0470D4699469246044600F12408016873
:100C7000880604D5E06921F01001216000E0012020
:100C8000A84201DD471B00E00027A1697A1902EBA9
:100C90000900081AA0612078C00602D42046FFF798
:100CA000C4FC002608E0D4E901211AF806009047A8
:100CB000206A401C761C20624E45F4DB2078C0067A
:100CC0000AD52046FFF7B1FC06E0D4E90121302027
:100CD0009047206A401C2062381EA7F10107F4DC0F
:100CE00007E0D4E9012118F805009047206A401C6C
:100CF0002062281EA5F10105F3DC2046FFF7ABFCBE
:100D00002078000602D50220BDE8F0870120FBE72D
:100D100070472DE9FF4F0C461E464FF0FF378BB052
:100D2000D2E90001DDF860800A908A46C1F30A55D5
:100D300005B93D46002108464FF00000BAF1000F0A
:100D400000F4400005DA00EB80004FF4400101EAB6
:100D500050004FEA9059B9F1010F00DDB9460A98E9
:100D600050EA4A000ED044F61050A5F2FF35454334
:100D70002F14B8F1000F1ED07542291E1EDDC9F1D7
:100D800000021CE0B8F1010F4FF0000001D030214B
:100D900003E0F24305E02154401CB042FBDB304647
:100DA0000022002121540B99C1F80880C1E90020DC
:100DB0000FB0BDE8F08FBD1B6D1CDEE74A4600DAC0
:100DC000694206A800F0F8FB06AB93E8070003AB06
:100DD00083E8070050460A9900F0FDFC8DE8070003
:100DE000A0F500501F3800900398002D0ADD42F254
:100DF0001F014A460844002303A90390684600F0F7
:100E000066FF09E0A0F500504A461F38002303A9F9
:100E10000390684600F070FF8DE807000004000CA6
:100E200003D04FF0FF30410800E01046B8F1000F4A
:100E300003D00022009215461EE0751E05D4FFF770
:100E4000C9FE303262556D1EF9D5B3460122084302
:100E500002D000227F1C04E02078302801D100223B
:100E60007F1E002A099784D01DE0112D07DAFFF7B5
:100E7000B1FE303262556D1C50EA0102F5D10843D3
:100E800002D00098C8B10EE00021681E05E0235C86
:100E9000625C63542254401E491C8142F7DBAB461E
:100EA000A81B401E0990002004F80B000B98099A1B
:100EB000C0F80880C0E9002B7AE711264FF000083F
:100EC00057E72DE9F04F88460446D21D22F007016E
:100ED00091B0D1E90001CDE90A0103F060F80246C2
:100EE0000B98C00F01D02D2007E02068810701D5A5
:100EF0002B2002E0202101EAC000032A099001D042
:100F0000072A05DB03464146204600F015FB0BE1AE
:100F10002078800601D5E06900E00620B8F1650F71
:100F2000814606D0B8F1660F18D0B8F1670F70D1BE
:100F300031E00020B9F1110F009001DB112301E035
:100F400009F101030AAA01A90CA8FFF7E2FEDDE9F5
:100F50000C70002609F10105834647E001204B464D
:100F600000904FF000470AAA01A90CA8FFF7D1FE94
:100F7000DDE90DB00C995D46002610B909F10100BC
:100F80000D18B9EB050003D4C0F1FF3609F10105D6
:100F9000A5EB09002BE0B9F1010F01DA4FF00109CF
:100FA0000020B9F1110F0090484601DD112300E047
:100FB00003460AAA01A90CA8FFF7ABFEDDE90C70F5
:100FC0004D4600268346207800070AD4AB4500DA58
:100FD0005D4601A8012D04DD411911F8011C3029DD
:100FE00007D04F4502DA17F1040F04DA01208246D8
:100FF0000FE06D1EEEE7002F02DCED1B3E4403E028
:10100000781CA84200DD7D1CB81B00F1010A4FF0DE
:1010100000472078000703D4AA4501DB4FF0FF3AD0
:101020000021B7F1004F0DF143088DF8431024D093
:1010300002202B23002F01DA7F422D230A21021EDA
:10104000A0F1010000DC5FB197FBF1FC97FBF1F22E
:1010500001FB1C7C17460CF1300C08F801CDEEE7C3
:10106000A8F1010003702188090501D5452100E0A0
:101070006521A0F1010800F8011C09980FA9A1EB56
:101080000807FF1D00B10120411901EBEA70A169B9
:101090003844081A401EA0612078C00602D42046B9
:1010A000FFF7C3FA099828B1D4E901219047206AD3
:1010B000401C20622078C00622D52046FFF7B5FAF2
:1010C0001EE0002E04DBB34502DD01A8805D00E0D8
:1010D0003020D4E901219047206A401C2062761C10
:1010E000AAF101005FEA000A0AD100F021FAC06803
:1010F0000168405CD4E901219047206A401C2062CD
:10110000281EA5F10105DCDC07E0D4E9012118F86F
:10111000010B9047206A401C2062381EA7F101078E
:10112000F3DC2046FFF797FA032011B041E60000F8
:101130002DE9F04F04460D46D21D22F0070089B07C
:10114000D0E900974846394602F029FF0246F80FD9
:1011500001D02D2307E02068810701D52B2302E071
:10116000202101EAC0038DF820300BB1012000E0FE
:101170000020032A824601D0072A04DB29462046A4
:1011800000F0DAF93FE12078800601D40D2500E077
:10119000E569C7F30A560D2D49DA00214FEA175BBE
:1011A00008464FF00000002F00F4400007DA00EB83
:1011B00080004FF4400100EBD07001EA600081151F
:1011C000012901DD4FF0FF3100224FEA850CBCF10F
:1011D000180F06D31346ACF118004FF08052C240EE
:1011E00003E04FF4801323FA0CF30CF10C0CBCF168
:1011F000200F04D3ACF1200C09FA0CF001E007FA3F
:101200000CF000294FF0004801DD18B90FE00ED1B5
:1012100040450CD319EB02095F4121B9404502D189
:101220009F4329EA0209BBEB175F00D0761C208898
:10123000000502D57B48784402E07A4878441938A2
:1012400008AA302302F80A30037C0AF10101002EBB
:101250000AF1020A53546A4602DC4FF0300101E001
:101260004FF031014FF001088DF8001002D0A6F2C6
:10127000FF3603E059EA470100D06B4E002D02DC37
:101280002178090704D54FF002082E218DF80110AE
:10129000C44600210BE0C7F303433F01C35C491C74
:1012A0006D1E02F80830052908F1010801DA002D49
:1012B000F1DC00210CE000EB1973491C1B786D1E5A
:1012C000082902F808304FEA091908F1010801DA83
:1012D000002DF0DC21688B0602D516E0A8F101088C
:1012E000E04505DD02EB080313F8013C302BF5D097
:1012F000B8F1000F09DD02EB080313F8013C2E2BB7
:1013000003D1090701D4A8F10108002D05DD3E2114
:1013100002F808106D1E08F10108407C002E02F84A
:10132000080008F1010804DA2D20764202F80800CE
:1013300002E02B2002F808000A214FF47A7086425E
:1013400008F101080BDB96FBF0F3303302F80830AC
:1013500096FBF0F308F1010800FB136601E0642E30
:101360000CDB642096FBF0F3303302F8083096FB78
:10137000F0F308F1010800FB136601E00A2E06DB1A
:1013800096FBF1F0303002F8080008F1010896FBF6
:10139000F1F001FB1060303002F80800A16908F19B
:1013A000010808EB050202EB0A00081AA061207888
:1013B000C00602D42046FFF738F9216A08AE01EBD7
:1013C0000A00206204E0D4E9012116F8010B9047DD
:1013D000BAF1010AF7D22078C00602D52046FFF7FD
:1013E00024F96E4609E016F8010B3E280FD0D4E927
:1013F00001219047206A401C2062B8F10108F2D216
:101400002046FFF728F909B00320BDE8F08F206AD5
:101410002844206203E0D4E90121302090476D1E6A
:10142000EBD3F8E70149000002FCFFFF10B5436968
:1014300013B1AFF3008001E0FFF730F9012010BDD8
:10144000127800F124010A7000224A700122EDE7AF
:1014500011684FF0FF32E9E710B5436913B1AFF3FC
:10146000008001E0FFF7B2F9012010BD128800F101
:10147000240182840022C2840122EDE711684FF02A
:10148000FF32E9E770B516460C46054600F048F80D
:10149000036893F80101012806D0FF2C0FD8185DCE
:1014A00068B101202C7070BDD3F807013246214687
:1014B00003F2071303442846BDE8704018474FF075
:1014C000FF3070BD10B500F0F7F8BDE8104000F037
:1014D000EEB870477546FFF75BFBAE460500694600
:1014E000534620F00700854618B020B5FEF704FFEC
:1014F000BDE820404FF000064FF000074FF0000815
:101500004FF0000B21F00701AC46ACE8C009ACE895
:10151000C009ACE8C009ACE8C0098D4670470000BE
:1015200010B500F005F8001D10BD00BF31380000F7
:10153000004870477C0200202DE9F0411F46044618
:1015400003260168072A01F4006004DB08B116A530
:1015500005E016A503E008B115A500E015A521F0EA
:1015600010002060A069C01EA0610FB1401EA061E4
:101570002046FFF75AF84FB1D4E901213846904789
:10158000206A401C2062C01C206206E0206AFAE744
:10159000D4E9012115F8010B9047761EF8D22046B8
:1015A000FFF759F8BDE8F0814E414E006E616E00C4
:1015B000494E4600696E66002DE9F04781461646A1
:1015C0008AB0354878440DC88DE80D00324878441B
:1015D000801C03AC0DC884E80D0041F69B30084424
:1015E000372190FBF1F290FBF1F5A5F1800501FBAD
:1015F00012041B3C02D56442012000E00020DFF809
:1016000098A080460027FA44AAF1BE0A0EE0E0073F
:101610000AD03246684607EB470101230AEB8101F5
:1016200000F06AFB8DE8070064107F1C002CEED1EF
:10163000194F7F44AE3F19E0E80715D007EB0410BF
:101640000DF1180A90E80E008AE80E00C068F0421A
:1016500001D1981908903246012306A903A800F089
:101660004BFB03AB83E807006D10641C002DE3D136
:101670004FF0010332466946B8F1000F03A802D0CB
:1016800000F025FB01E000F037FBC9E90001C9F8D3
:1016900008200AB0BDE8F0870446000010B50446F3
:1016A000AFF300802046BDE81040FEF710BE0028D2
:1016B00001D000F029B8704710B5012805D00021ED
:1016C00003A000F027F8012010BD09A1F8E70000F1
:1016D00053494752544D454D3A204F7574206F661B
:1016E0002068656170206D656D6F72790000000083
:1016F0003A2048656170206D656D6F727920636F67
:10170000727275707465640001491820ABBEFEE703
:101710002600020070B505460C460A2000E06D1C4C
:1017200000F052F835B128780028F8D102E0641CA6
:1017300000F04AF814B120780028F8D1BDE87040D4
:101740000A2000F041B800004FF0013C50F8042B93
:1017500051F8043B9A4221D1A2EB0C03934313EAC4
:10176000CC1317D150F8042B51F8043B9A4215D1F1
:10177000A2EB0C03934313EACC130BD150F8042BC8
:1017800051F8043B9A4209D1A2EB0C03934313EAAC
:10179000CC13DBD04FF00000704700BFD01A01BA65
:1017A000B1FA81F101F0180122FA01F0CB40C1F148
:1017B0002001DBB2C0B2C01A2CFA01F3D11A914356
:1017C00011EAC311E6D1704708B569468DF80000EB
:1017D0000320ABBE08BD5FEA400C08BF91F0000FCC
:1017E0004FEA8C234FEAC12243EA51514FEA1C5081
:1017F00018BF00F5F0404FEA300018BF41F000413B
:101800005FEA6C5C00F02980BCF1FF3F08BF40F04C
:1018100080407047130C06BF12044FF0100C4FF0BD
:10182000000C130E04BF12020CF1080C130F04BFBE
:1018300012010CF1040C930F04BF92000CF1020C86
:10184000D30F04BF52000CF1010C11464FF00002FF
:10185000A0F11F00A0EB0C00704711F0004F08BF73
:10186000704731F000413FF4D5AF0B0C06BF0904BF
:101870004FF0100C4FF0000C0B0E04BF09020CF1DE
:10188000080C0B0F04BF09010CF1040C8B0F04BFF3
:1018900089000CF1020CCB0F04BF49000CF1010CC4
:1018A000CCF12003A0EB0C0022FA03F302FA0CF2B5
:1018B00041EA030100F10100704720F07F4C80EA0B
:1018C000030023F07F47ACEB070303F57C5300F0E4
:1018D000004003F1FF032DE980494FEA154B09B49D
:1018E0004FEA144325EA0B4E24EA03480FF204267C
:1018F00006EB132749083E785FEA320203FB0667CE
:10190000C7F5000707FB06F64FEA54374FEAD646FD
:1019100006F1020607FB066CCCF1005C4FEA1C479F
:101920002CEA074C07FB06F40CFB06F504EB154606
:101930004FEA961634BF00204FF000404FEAD137EF
:1019400006FB07FC4FEA1C4C0CFB0BF7D21B03FBFE
:101950000CF761EB07010CFB0EF7B0EB074072EBE5
:1019600017420CFB08F734BFA2EB0742B2EB074269
:1019700061EB17414FEA0C444FEA910706FB07FC65
:101980004FEA1C4C0CFB0BF7B0EBC74072EB573225
:1019900003FB0CF734BFA2EBC742B2EBC74261EBCB
:1019A00057310CFB0EF7B0EBC70072EB57720CFB14
:1019B00008F734BFA2EBC702B2EBC70261EB577165
:1019C000039F4FEA816141EA921104EBCC044FEA94
:1019D000D1374FEA826206FB07FC42EA90124FEAD7
:1019E00080604FEA1C4C0CFB0BF7D21B03FB0CF77F
:1019F00061EB07010CFB0EF7B0EB074072EB1742EF
:101A00000CFB08F734BFA2EB0742B2EB074261EBD5
:101A100017414FEA8C554FEA910704EB9C2406FBD3
:101A200007FC4FEA1C4C0CFB0BF7B0EBC74072EB0A
:101A3000573203FB0CF734BFA2EBC742B2EBC742ED
:101A400061EB57310CFB0EF7B0EBC70072EB57722E
:101A50000CFB08F734BFA2EBC702B2EBC70261EB85
:101A6000577115EB4C254FEA816141EA92114FEA1B
:101A700082624FEAD13742EA901206FB07FC44F13A
:101A800000044FEA80604FEA1C4C0CFB0BF7D21BA2
:101A900003FB0CF761EB07010CFB0EF7B0EB074003
:101AA00072EB17420CFB08F734BFA2EB0742B2EB14
:101AB000074261EB174115EB1C154FEA813141EAF2
:101AC00092414FEA823242EA90424FEA80304FEA36
:101AD0000C7644F1000448EA03434EEA0B484FF009
:101AE000000EB2EB080C71EB030724BF62463946C7
:101AF0004EEB0E0E4FF0000B0018524149414BEBDC
:101B00000B0BB2EB080C71EB03077BF1000B24BF4E
:101B1000624639464EEB0E0E4FF0000B0018524154
:101B200049414BEB0B0BB2EB080C71EB03077BF15C
:101B3000000B24BF624639464EEB0E0E51EA0207F7
:101B400018BF46F0010616EB0E7655F1000254F16F
:101B5000000103D5BDE88901BDE80088BDE8890121
:101B6000BDE80048B619524141EB0101A3F1010360
:101B7000704780807F7E7D7C7B7A797877767675FA
:101B80007473727171706F6E6E6D6C6C6B6A6A6972
:101B90006868676666656464636362616160605F0C
:101BA0005F5E5E5D5D5C5C5B5B5A5A595958585785
:101BB00057565655555554545353525252515150ED
:101BC00050504F4F4F4E4E4D4D4D4C4C4C4B4B4B40
:101BD0004A4A4A4949494848484747474746464686
:101BE00045454544444444434343434242424241C1
:101BF0004141002B9C4630D477002BD01CB54FEAD6
:101C0000370703B44FF010004FF01001BAF1000F86
:101C100006D0BCF1000FDCBF40F0080040F0080126
:101C20004FF000000FBCBDE810400BF1010BBBF101
:101C3000010F08BF5FEA170722BF12F1010211F17D
:101C400001014FF0004143F1000300F0004043EA7E
:101C500000007047F9D35708D0E746EA064613F16B
:101C6000400F4FEA16461FDD13F1200FDFBF16436A
:101C70000A46002120335B42BED0C3F1200746EA6A
:101C8000064602FA07F74FEA164646EA0706C3F188
:101C9000200722FA03F201FA07F721FA03F14FF0C5
:101CA000000342EA0702A7E746EA020646EA0646BA
:101CB0004FEA164646EA0106BCBF46EA0646360C1F
:101CC0004FF000034FF000024FF0000194E72DE9C0
:101CD000804C9A46934670B491E8380007C831EAC0
:101CE000400C48BF34EA430C03D5FFF7E6FDFFF78D
:101CF00080FFF0BCBDE8008C2DE9804C9A469346ED
:101D000070B491E8380007C810F0804F08BF13F096
:101D1000804F03D100F005F8FFF76BFFF0BCBDE882
:101D2000008C20F07F4780EA030023F07F4C07EB14
:101D30000C03A3F57C5300F00040A3F1FE0392F0E6
:101D4000000F00F0B38095F0000F00F077802DE9D0
:101D500001494FEA11404FEA144621EA004800FBCE
:101D600006FC24EA064708FB06F607FB08F800FB1A
:101D700007F718EB06484CEB164C4FEA124B18EBE2
:101D800007484FEA15464CEB174022EA0B4E0BFB77
:101D900006FC25EA06470EFB06F607FB0EFE0BFBCC
:101DA00007F71EEB064E4CEB164C4FF000061EEBF1
:101DB000074E4CEB174B18EB0B0840F1000018EBEB
:101DC0000E0B58EB000840F100008F1A4FF0000195
:101DD0003CBFC943661B14BFB5EB040C00213CBFDC
:101DE000C943F61B4FEA17444EEA8E0E27EA044514
:101DF0004FEA1C4704FB07622CEA074C05FB07F778
:101E00000CFB05F604FB0CFC16EB074642EB1742F5
:101E100016EB0C4642EB1C421BEB060658EB02028B
:101E2000414146EA9E0601D5BDE80189B6195241F5
:101E300041EB0101A3F10103BDE801894FEA14451B
:101E40004FEA114724EA054621EA074C05FB07F44F
:101E500006FB07F70CFB06F105FB0CFC11EB074139
:101E600044EB17444FEA124711EB0C4144EB1C447E
:101E700022EA074C05FB07F206FB07F70CFB06F608
:101E800005FB0CFC16EB074642EB174216EB0C4623
:101E900042EB1C456A1854F1000148BF7047B6195F
:101EA000524141EB0101A3F10103704795F0000F8E
:101EB00037D04FEA11424FEA144721EA024624EA9A
:101EC000074C02FB07F106FB07F70CFB06F402FBCD
:101ED0000CFC14EB074441EB17414FEA154714EB98
:101EE0000C4441EB1C4125EA074C02FB07F506FBBD
:101EF00007F70CFB06F602FB0CFC16EB074645EB5E
:101F0000174516EB0C4645EB1C42121951F1000126
:101F100048BF7047B619524141EB0101A3F10103DB
:101F200070474FEA14454FEA114724EA054621EA73
:101F3000074C05FB07F106FB07F70CFB06F24FF019
:101F4000000605FB0CFC12EB074241EB174112EBBC
:101F50000C4251EB1C4148BF7047921841EB010104
:101F6000A3F101037047FEE7014800F011BA000039
:101F70009C010020014800F00BBA0000FC01002089
:101F800001681823CAB2103AB2FBF3F2054B6FF3A3
:101F90000901032A9B5CC36500D9091D81650846B8
:101FA000704700009E59000810B5014600208B695B
:101FB0008A6A4FF0C07453B1B3F5005F15D072B1A7
:101FC000012A0CD0022A0AD0032A09D104E01AB14E
:101FD000012A06D0022A03D1C96AC90100D501200D
:101FE00010BDC96AA142FAD010BD002AF7D0012A5B
:101FF000F2D0022AF3D0032AF3D010BD70470000BC
:1020000070B505462DED068B0C4608789FEDA28B2A
:102010009FEDA39B9FEDA40A9FEDA4AB92287DD0DA
:1020200049DC62287BD022DC422879D014DC3028BD
:1020300003D0312801D032280BD1A0786870E07825
:10204000A8702079E87060792871A0796871C879E2
:10205000A871BDEC068B70BD602877D06128F8D1DF
:102060002079D1F8051040EA0120E862F1E77128F3
:1020700074D009DC632873D0642871D07028E8D14B
:10208000C87985F83C00E4E7792868D09028E0D149
:10209000608803F0FDF853EC182B03F00DF953ECB6
:1020A000192B03F009F902F07BFEA861A088E86211
:1020B000E088A862CDE7A42816D00EDC9D287ED04B
:1020C00006DC94285CD09A2864D09C28C1D10BE00F
:1020D000A12809D0A228BCD106E0B1286DD020DC0F
:1020E000A6286BD0A828B4D160782872608800EE4A
:1020F000900AF8EE600A80EE801A85ED031AA08837
:1021000000EE100AB8EE400A85ED050AC88800EE18
:10211000100AB8EE400A85ED060A9AE726E01FE0AD
:102120000DE0B2287DD0B52893D100202A18215C7B
:10213000401C82F848100728F8DB8AE706E020797F
:10214000D1F8051040EA0120286182E72079D1F812
:10215000051040EA012003F084F86AE075E08DE0A4
:102160002079D1F8051040EA0120A2E72079D1F8C2
:10217000051040EA012000EE900AF8EEE00A04E0C3
:10218000C88800EE900AF8EE600A80EE801A85EDAD
:10219000061A5EE760782872E07885F83A00A08831
:1021A00003F076F853EC1A2B03F086F802F0F8FDF2
:1021B0002863E08828874CE701E051E022E060785E
:1021C0002872608803F064F89FED3A8B53EC182B6B
:1021D00003F072F802F0E4FDE861A08803F058F81B
:1021E00053EC182B03F068F802F0DAFD2862E0885F
:1021F00003F04EF853EC182B03F05EF802F0D0FD1C
:10220000686226E760782872608800EE900AF8EE2F
:10221000600A80EE801A85ED031AA08800EE100A8D
:1022200000E024E0B8EE400A85ED050AC88803F016
:102230002FF853EC182B03F03FF853EC192B03F055
:102240003BF802F0ADFDA86103E7C88803F020F871
:1022500053EC1A2B03F030F802F0A2FD6863F8E6A5
:102260002079D1F8051040EA01202864F1E62079B0
:10227000D1F8051040EA01206864EAE6E07908B97F
:10228000887908B1012100E00021BDEC068B0BA08C
:10229000BDE8704002F0F8BC000000000000103FF4
:1022A00000000000008076400000C8429A99999989
:1022B0009999B93F7B14AE47E17A843F49443A2566
:1022C000780A000072B602A002F0DEFCFEE7000011
:1022D0004572726F720A00002DE9F0410446876D65
:1022E00000F0A8FA064694F835000025022806D02A
:1022F0008020606584F834500120BDE8F0812068BA
:10230000016821F0160101602068416921F0800117
:102310004161206C08B9A06C20B12068016821F0EF
:10232000080101602068016821F0010101600CE0F2
:1023300000F080FA801B052807D920206065032063
:1023400084F8350084F83450D7E720680068C00767
:10235000EED194F85C103F208840B860012084F8EA
:10236000350084F834500020C7E790F83510022972
:1023700003D08021416501207047052180F8351088
:102380000068016821F00101016000207047000031
:102390002DE9F84304464FF00009CDF8009063485A
:1023A0004FF41651A56D0068B0FBF1F72E6894F854
:1023B0005C10082000FA01F131420FD021680A6850
:1023C00052070BD50A6822F004020A6094F85C10E8
:1023D0008840A860606D40F00100606594F85C1072
:1023E0004FF0010808FA01F0304208D0216849692D
:1023F000090604D5A860606D40F00200606594F89D
:102400005C1004208840304208D0216809688907A0
:1024100004D5A860606D40F00400606594F85C101D
:1024200010208840304218D021680968090714D567
:10243000A86020680168490304D50068000308D536
:10244000A16C07E00168C90503D4016821F0080107
:102450000160216C09B12046884794F85C10202067
:102460008840304231D021680968C9062DD5A8605E
:1024700094F8350005282068016806D0490347D53F
:10248000006800031DD4616C1CE021F0160101609E
:102490002068416921F080014161206C08B9A06C7D
:1024A00020B12068016821F00801016094F85C10F7
:1024B0003F208840A86084F8358084F83490216DEE
:1024C0001FE0E16B09B120468847606D00282BD0E2
:1024D000606DC00714D0052084F8350020680168BD
:1024E00021F0010101600098401C0090B84203D81F
:1024F00020680068C007F6D184F8358084F83490ED
:10250000E16C002910D001B02046BDE8F043084737
:102510000168C905D5D4016821F01001016084F873
:10252000358084F83490CCE7BDE8F883C8000020FB
:102530002DE9F041044600F07DF906465CB1022029
:1025400084F83500002584F834502068016821F0B3
:10255000010101600DE00120BDE8F08100F06AF9A1
:10256000801B052805D920206065032084F83500EC
:10257000F2E720680068C007F0D12268116820489F
:102580000140D4E901031843D4E903363343184327
:1025900063691843A3691843E3691843236A18431E
:1025A0000843616A042903D1D4E90B131943084392
:1025B000106020684069666A20F0070130460E43CB
:1025C000012704280CD1A06A0643E06A40B12046E6
:1025D000FFF7EAFC20B14020606584F83570BAE767
:1025E000206846612046FFF7CBFC94F85C203F2131
:1025F00091408160656584F835700020ACE700008B
:102600003F8010F070B5044600F014F90546601CD8
:1026100002D004480078044400F00CF9401BA042AA
:10262000FAD370BDBC0000202DE9F84FDFF8BCA143
:102630000022012503264FF00F090AF1040BAAF12D
:10264000040E00BF0B6805FA02F42340A34270D1C8
:102650000F7907F00307012F01D0022F16D18768E9
:102660004FEA420806FA08FC27EA0C07D1F80CC02A
:102670000CFA08FC4CEA070CC0F808C04768A743EE
:102680000C79C4F3001494403C4344600C79E44357
:10269000A4070AD0C4684FEA420C06FA0CF7BC4300
:1026A0008F6807FA0CF72743C7600C7904F003041E
:1026B000022C12D1D40800EB840CDCF82040570720
:1026C000FF0E09FA07F824EA0804D1F8108008FA86
:1026D00007F848EA0408CCF8208004684FEA420C66
:1026E00006FA0CF7BC430F7907F0030707FA0CF75B
:1026F000274307604C6814F4403F70D03C4C276877
:1027000047F480472760246822F0030704F48044DC
:102710000094384C07EB040CDCF8084897074FEAA4
:10272000177809FA08F7BC43334FB84202D10027A3
:1027300024E054E0314FB84201D101271EE0304F70
:10274000B84201D1022719E02E4FB84201D1032728
:1027500014E02D4FB84201D104270FE02B4FB842AF
:1027600001D105270AE02A4FB84201D1062705E02A
:10277000284FB84201D1072700E0082707FA08F7D9
:102780002743CCF80878DAF800405746D1F804C05F
:102790009C435FEACC2C00D51C433C60DBF8004036
:1027A0005F46D1F804C09C435FEA8C2C00D51C43E3
:1027B0003C60DEF800407746D1F804C09C435FEAF5
:1027C0008C3C00D51C433C60084F083F3C68D1F866
:1027D00004C09C435FEACC3C00D51C433C60521CC7
:1027E000102AFFF42FAFBDE8F88F0000083C01402D
:1027F0004438024000300140000002400004024022
:1028000000080240000C0240001002400014024088
:1028100000180240001C0240426921EA02030A40FB
:1028200043EA0241816170470AB18161704709043E
:10283000FBE700000148806870470000BC000020F2
:10284000024881680278114481607047BC00002012
:102850000B4810B5016841F400710160016841F452
:1028600080610160016841F480710160032000F023
:102870006FF8012000F006F800F024F8002010BDE9
:10288000003C024070B50D4D04464FF47A71287833
:10289000B1FBF0F00A490968B1FBF0F000F00AFB67
:1028A00048B9102C07D200222146501E00F030F803
:1028B00000206C6070BD012070BD0000BC000020D5
:1028C000C80000200A4808B5016841F48041016051
:1028D000006800F4804000900548001F016841F046
:1028E00080510160006800F08050009008BD000039
:1028F00044380240002809DB00F01F02012191400A
:102900004009800000F1E020C0F80011704700008D
:10291000F0B40E4B1B680C46C3F30223C3F107054A
:10292000042D00D90425191D072901D2002300E038
:10293000DB1E012606FA05F1491E214099409E4002
:10294000761E16403143F0BC01F041BB0CED00E0B7
:10295000064900F0070208684FF6FF03184040EAF6
:102960000220034A10430860704700000CED00E0AD
:102970000000FA052DE9F0470E46050065D0DFF8A6
:102980001481D8F80000F7B200F00700B04207D277
:1029900088F80070D8F8000000F00700B04254D169
:1029A00028683D4C810712D5400703D5206840F4C4
:1029B000E05020602878000703D5206840F460408C
:1029C00020602068A96820F0F00008432060287883
:1029D000C0072DD0304968680839012812D0022874
:1029E00013D0032811D00968890700292DDA21683E
:1029F00021F0030101432160FFF71CFF814641F2F2
:102A0000883A0EE009688903EFE709688901ECE775
:102A1000FFF710FFA0EB0901514502D90320BDE8E3
:102A2000F0872068696800F00C00B0EB810FEFD1EF
:102A3000D8F80010404601F00701B14207D90770ED
:102A4000006800F00700B04201D00120E7E72878D5
:102A5000400705D52068E96820F4E050084320606D
:102A60002878000706D52068296920F4604040EAEC
:102A7000C100206000F038F82168084AC1F3031152
:102A8000515CC8400649086006480068FFF7FAFE36
:102A90000020C4E7003C024008380240A659000864
:102AA000C8000020C00000200448054900680968EB
:102AB000044AC1F38221515CC8407047C80000201D
:102AC00008380240B65900080448054900680968FA
:102AD000044AC1F34231515CC8407047C80000202D
:102AE00008380240B6590008154810B5006810F0C3
:102AF0000C02144813D04110042A0FD0082A0ED11A
:102B00000F4C241F2268236802F03F025B0207D5A6
:102B10002068C0F38810A0FB010106E0084610BD44
:102B20002168C1F38811A1FB00010023FDF74CFCD3
:102B30002168C1F30141491C4900B0FBF1F010BD0F
:102B4000083802400024F4002DE9F84F04006ED04C
:102B50002078DFF84C93C007A9F104054AD009F1A9
:102B600004000168C1F38101012908D00068C0F3A5
:102B7000810002280AD1D9F80000400206D5286851
:102B8000800337D560680028E1D033E06068B0F595
:102B9000803F10D0B0F5A02F286810D020F48030EE
:102BA0002860286820F4802028606068A8B1FFF7BA
:102BB00041FE06460DE0286840F48030F4E740F41A
:102BC00080202860F7E700BFFFF734FE801B6428F1
:102BD00073D828688003F7D50CE0FFF72BFE064674
:102BE00005E000BFFFF726FE801B6428F0D82868A8
:102BF0008003F7D42078DFF8AC8280074FF0000A1A
:102C00003ED5A748001D016811F00C0F08D00068E0
:102C1000C0F3810002280BD1D9F80000400207D48C
:102C20002868800716D5E068012800D112E033E15A
:102C3000E068B8B10120C8F80000FFF7FBFD0646C8
:102C400005E000BFFFF7F6FD801B0228C0D828680A
:102C50008007F7D52868216920F0F80040EAC10014
:102C600028600DE0C8F800A0FFF7E4FD064604E088
:102C7000FFF7E0FD801B02281FD828688007F7D4E3
:102C80002078000722D5864F87486169703771B177
:102C900001210160FFF7CEFD064604E0FFF7CAFD03
:102CA000801B022809D838688007F7D50EE0C0F8E5
:102CB00000A0FFF7BFFD064605E082E0FFF7BAFD82
:102CC000801B02287DD838688007F7D42078400719
:102CD00068D5DFF8CCB100270BF13C0BDBF8000026
:102CE000C0000BD4DBF8001041F08051CBF800108D
:102CF000DBF80000012700F0805000906B4E306838
:102D0000C00510D4306840F480703060FFF792FD49
:102D1000009005E0FFF78EFD0099401A022850D878
:102D20003068C005F6D55E4EA0686C3601280FD01D
:102D30000528306810D020F001003060306820F0A5
:102D400004003060A068B8B1FFF774FD00900FE098
:102D5000306840F00100F4E740F004003060F7E72D
:102D6000FFF768FD0099411A41F28830814266D828
:102D700030688007F4D50EE0FFF75CFD009007E0B7
:102D8000FFF758FD0099411A41F28830814256D828
:102D900030688007F4D42FB1DBF8001021F08051A7
:102DA000CBF80010A069C8B33D49091D0968C1F3FB
:102DB000810102294AD00228504607D0C8F8600095
:102DC00000E03CE0FFF736FD04463BE04746C8F82C
:102DD0006000FFF72FFD064605E000BFFFF72AFD64
:102DE000801B02282BD828688001F7D4D4E907017A
:102DF0000843A16A2E4A490802EB0141626A41EA8E
:102E00008211084394F82C1040EA0161C9F80010BF
:102E100001203866FFF70EFD044606E03EE000BFE5
:102E2000FFF708FD001B022809D828688001F7D5A4
:102E300034E000BFFFF7FEFC001B022802D903208C
:102E4000BDE8F88F28688001F4D427E00128F7D086
:102E5000D9F80000E26900F4800191421CD1226A95
:102E600000F03F01914217D147F6C071626A0140FC
:102E7000B1EB821F10D1A26A4FF0FF3300F4403152
:102E800003EB5202B1EB024F06D194F82C1000F084
:102E90007060B0EB016F01D00120D1E70020CFE7D7
:102EA0000438024000004742800E47420070004054
:102EB0000000FFFF10B5401EB0F1807F01D301205C
:102EC00010BD4FF0E02460610F21601701F07FF822
:102ED0000020A06107202061002010BD70B590F88F
:102EE0003C20012A32D0012480F83C40022280F8A4
:102EF0003D2003685A689D6822F070060A683243D4
:102F00005A60134B02689A4214D0B2F1804F11D02C
:102F1000104B9A420ED0104B9A420BD00F4B9A4254
:102F200008D00F4B9A4205D00E4B9A4202D00E4B5E
:102F30009A4204D1496825F080031943916080F8D2
:102F40003D40002180F83C10084670BD022070BD55
:102F5000000001400004004000080040000C004058
:102F600000040140004001400018004010B504007A
:102F700003D094F83D0010B107E0012010BD0020FF
:102F800084F83C00204600F01FF8022084F83D0041
:102F9000211D206800F0EEFD012084F8460084F831
:102FA0003E0084F83F0084F8400084F8410084F833
:102FB000420084F8430084F8440084F8450084F813
:102FC0003D00002010BD000008B500680649884299
:102FD00008D10648016841F002010160006800F074
:102FE0000200009008BD0000000401404438024087
:102FF00090F83D10012901D001207047022180F88E
:103000003D1000681149884214D0B0F1804F11D0B2
:103010000F4988420ED00F4988420BD00E49884292
:1030200008D00E49884205D00D49884202D00D498A
:10303000884204D1816801F00701062903D00168A4
:1030400041F00101016000207047000000000140D4
:103050000004004000080040000C00400004014053
:10306000004001400018004070B5044690F83C0054
:103070000025012817D0012684F83C60022084F83E
:103080003D002068826822F0770222F47F4282604D
:103090000868502838D00DDC20284FD005DC90B3CC
:1030A000102811D14AE0022070BD302846D04028B7
:1030B0000AD13BE060282FD070280DD0B0F5805F9A
:1030C00003D0B0F5005F12D0012584F83D600020E8
:1030D00084F83C00284670BDCB68D1E90121206806
:1030E00000F0ACFD2068816841F0770109E0CB6811
:1030F000D1E90121206800F0A1FD2068816841F438
:1031000080418160E1E719E0CA684968206800F001
:10311000A7FD5021206806E0CA684968206800F0D1
:10312000B0FD6021206800F093FDCEE7CA684968D1
:10313000206800F095FD40212068F4E722680146F0
:103140001046F0E770477047F8B501680446086814
:10315000CA684B6910F00F0F4FF0000559D003F00B
:10316000010602F49077374365D0C10705D0D10539
:1031700003D5216C41F001012164410705D5D90730
:1031800003D0216C41F002012164810705D5D907E4
:1031900003D0216C41F004012164010707D502F03E
:1031A0002001314303D0216C41F008012164216CDE
:1031B00000293AD0800604D5900602D5204600F0BA
:1031C000A1FD20684069216CC0F38010090700D47C
:1031D00060B3204600F06FFD20684069400621D5AD
:1031E0002068143050E8001F21F0400140E8001230
:1031F000002AF5D1A06BA8B16C490165A06BFFF75F
:10320000B4F8002811D0A06B016D01B0BDE8F0400A
:10321000084783060FD593060DD52046BDE8F84034
:1032200000F070BD2046FFF78EFFF8BD2046FFF787
:103230008AFF2564F8BD266B2023012E79D1C606AE
:1032400077D5D60675D50868486800904869400665
:1032500040D5A16B086840680004000CEAD0A28D3C
:103260008242E7D9E085C869B0F5807F2DD020681B
:103270000C3050E8001F21F4807140E80012002A51
:10328000F5D12068143050E8001F21F0010140E81A
:103290000012002AF5D12068143050E8001F21F0F8
:1032A000400140E80012002AF5D184F83E30256341
:1032B00020680C3050E8001F21F0100140E8001297
:1032C000002AF5D1A06BFFF707F8A08DE18D401A19
:1032D00081B229E0A08DE18D401A81B2E08D0028F5
:1032E000A8D00029A6D020680C3050E8002F22F486
:1032F000907240E80026002EF5D12068143050E886
:10330000002F22F0010240E80026002EF5D184F8BB
:103310003E30256320680C3050E8002F22F0100268
:1033200040E80023002BF5D12046FFF70BFFF8BD46
:10333000FFE705062BD5150629D594F83D00212871
:10334000F5D1A068B0F5805F01D12069B0B1206AE5
:10335000411C2162216800784860E08C401E000416
:10336000000CE084E3D12068C16821F08001C160D5
:103370002068C16841F04001C160D8E7206A008838
:10338000C0F308004860206A801C2062E5E7400620
:10339000CDD55006CBD5CA68204622F04002CA607F
:1033A00084F83D3000F0B9F9C1E70000A73C0008FF
:1033B00070B5040004D094F83D00002510B106E07B
:1033C000012070BD84F83C50204600F023F82420F2
:1033D00084F83D002068C16821F40051C160204696
:1033E00000F0F0FC2068016921F49041016120683F
:1033F000416921F02A0141612068C16841F400510E
:10340000C1602564202084F83D0084F83E0000203F
:1034100070BD00002DE9F04186B0064614216846D3
:10342000FDF77BF84248DFF804C13768404910389F
:10343000022203230725002467454ED10F6847F475
:1034400000370F60096801F400310591016841F00F
:10345000010101600068694600F0010005900C2040
:103460008DE81500CDE903353248FFF7DDF8334D1F
:1034700031484FF000672860C5E901744FF4806857
:10348000C5E903486C61AC61EC612C6228466C6252
:10349000FFF74EF808B1FEF715FFB563AE63264897
:1034A000274D1830E5E802074020A5E8110180000B
:1034B00045F81449C5E906402C6221486C62FFF7C3
:1034C00037F808B1FEF7FEFE756300220E212620B4
:1034D000AE63FFF71DFA262022E01A4EB74221D133
:1034E0000E6846F480260E60096801F4802105917B
:1034F000016841F0080101600068694600F00800B9
:1035000005904FF440708DE81500CDE903350E4865
:10351000FFF78AF800220E212720FFF7F9F927206C
:10352000FFF7E8F906B0BDE8F08100000044004074
:103530004038024000000240886002409C010020A8
:10354000FC01002000480040000C02402DE9F84F2B
:10355000044690F83E009A4616460D46202853D160
:10356000FDB1F6B194F83C0001284DD0012084F85B
:103570003C0000272764222084F83E002763FFF7E1
:1035800059F9A6858146E685A0684FF480584045E4
:1035900001D1206940B12E465FF0000584F83C70EF
:1035A00027E00120BDE8F88F0026F7E74B46002210
:1035B00020212046CDF800A000F0A7FC08B1032090
:1035C000F0E726B1A06840451BD038B108E020687C
:1035D0004068C0F3080025F8020B07E0206980B1BD
:1035E0002068406800F07F0006F8010BE08D401E67
:1035F000E085E08D0028D9D1202084F83E0000200D
:10360000D0E720684068EFE70220CBE790F83E3033
:10361000202B0ED159B152B190F83C30012B08D07B
:10362000012380F83C300023036300F051BC0120EB
:103630007047022070470000064810B5017806A0C8
:1036400001F022FBBDE81040012202490548FFF7C6
:10365000DDBF000010000020746573743A202564FB
:103660000A000000580100202DE9F843044690F8B4
:103670003D001F4616460D4620284CD1C5B1BEB1AF
:1036800094F83C00012846D0012084F83C004FF01B
:103690000008C4F84080212084F83D00FFF7CAF8F4
:1036A000A6848146E684A068B0F5805F03D004E07C
:1036B0000120BDE8F883206928B12E465FF000059F
:1036C00084F83C800EE00026FAE78021204600F0D6
:1036D0001CFCA0B9AEB116F8010B21684860E08C63
:1036E000401EE084E08C4B464FF00002009700281B
:1036F000EBD14FF04001204600F007FC30B1032031
:10370000D7E735F8020BC0F30800E6E7202084F87D
:103710003D000020CDE70220CBE77047FEE7000028
:103720002DE9F04186B014216846FCF7F6FE1F48EB
:103730000024016841F080010160016801F080010E
:103740000591016841F001010160016801F001018A
:103750000591016841F0080101600068144F00F014
:1037600008004FF440550590002229463846FFF7DF
:103770005BF8DFF84080BE15002231464046FFF777
:1037800053F800950125CDE9015469463846039464
:10379000FEF74AFF0320CDE90240CDE90065694606
:1037A0004046FEF741FF06B0BDE8F08130380240E8
:1037B000000C02400000024010B586B000241548FD
:1037C00000940194029403940494114905940160B7
:1037D000A721C0E901144FF6FE71C0E9031444614A
:1037E0008461FFF7C3FB78B94FF4805000906946BD
:1037F0000848FFF739FC38B9049404A90548059432
:10380000FFF76CFB002801D0FEF75CFD06B010BD91
:1038100000040140CC000020FEE7FEE770471CB525
:1038200004460020009001908DF80120100A8DF8C8
:103830000200080A8DF80400080C8DF80500080E37
:103840008DF803108DF806006A46A421204601F089
:1038500037FAA421204600F0ADF81CBD1CB50021AC
:10386000009101916A46802101F02AFA1CBD1CB525
:1038700004460020009001906A46B521204601F0E0
:103880001FFAB521204600F095F81CBD30B4044C59
:10389000C4E901016280E36030BC1846FFF7A8BBB1
:1038A000000000201CB504460020009001906A46EC
:1038B0009D21204601F004FA9D21204600F07AF86F
:1038C0001CBD1CB504460020009001906A46922160
:1038D000204601F0F5F99221204600F06BF81CBD5E
:1038E0007CB504460020009001908DF801108DF801
:1038F00006201D466A46792101F0E2F92A4679211F
:10390000204600F0A3F87CBD1CB500220192009275
:103910008DF806106A46B42101F0D2F91CBD1CB521
:1039200004460020009001906A466421204601F080
:10393000C7F9204600F001F81CBD1CB5002100911C
:1039400001916A46762101F0BBF91CBD2DE9FC41CD
:1039500008AF97E87000002700978DF801100197D5
:103960008DF802208DF804408DF805508DF8033055
:103970008DF806606A46312101F0A2F9BDE8FC81AC
:103980001CB50446002000900190080A8DF8040040
:10399000080C8DF80500080E8DF803108DF8060050
:1039A0006A46A221204601F08BF9A221204600F0B0
:1039B00001F81CBD70B51B4C064686B00D4620882C
:1039C00000F0ACFF00226188A068FEF72DFF208880
:1039D00000F0A4FF05230D2202A96068FFF7B6FDE1
:1039E0009DF808003E280CD19DF8090031788842E6
:1039F00003D0CD2D01D0792D03D19DF80A000828E0
:103A000005D0294608A001F03FF906B070BDDDF8E9
:103A10000B000090DDF80F00019069463046FEF77C
:103A2000EFFAF2E7000000204572726F72207265B3
:103A30006365697665206F6363757220696E2043E4
:103A40004D443A202578200A000000002DE9F0417D
:103A5000174602EB870000EBC7063046FCF75EFC1A
:103A6000DFF8608005464446B8F8000000F056FFD5
:103A700000226188A068FEF7D7FE208800F04EFF84
:103A800000240BE004EB840000EBC40041190A237E
:103A90000D22D8F80400FFF759FD641CBC42F1DB8D
:103AA000002404E0295D08A001F0EEF8641CB44293
:103AB000F8D306A001F0E8F82846BDE8F041FCF78D
:103AC0005CBC000000000020257820000A000000F7
:103AD0007047FEF7B5BE000030B593B030216846A0
:103AE000FCF71BFD14210CA8FCF717FD1B48002553
:103AF000016841F080510160006800F08050119031
:103B00001748016841F4804101600068022400F414
:103B10008040119001200090000401908001CDE9C7
:103B2000064008AA0420A82182E813000B906846EA
:103B3000FFF70AF870B90CA90F2081E831004FF4A3
:103B4000A0500F90E002109005210CA8FEF712FF84
:103B5000002801D0FEF7B6FB13B030BD403802405C
:103B6000007000400248016841F470010160704734
:103B700088ED00E0F0B50268254C264D264E274F13
:103B8000274B4FF0804CA04209D0604507D0A84297
:103B900005D0B04203D0B84201D0984204D122F0FF
:103BA000700E4A6842EA0E02A0421BD0604519D04E
:103BB000A84217D0B04215D0B84213D0984211D0C5
:103BC000184DA8420ED0184DA8420BD0174DA84250
:103BD00008D0174DA84205D0164DA84202D0164D68
:103BE000A84203D122F44075CA682A434D6922F0E5
:103BF00080022A4302608A68C2620A688262A04226
:103C000001D0984201D10969016301214161F0BDF0
:103C1000000001400004004000080040000C00408B
:103C200000040140004001400044014000480140C0
:103C300000180040001C00400020004010B58468BF
:103C400042EA032224F47F440A432243826010BDE7
:103C5000826822F070020A4342F0070181607047D7
:103C600010B5036A046A24F001040462846924F034
:103C7000F00444EA021423F00A020A438461026257
:103C800010BD10B5036A23F0100303628369046A50
:103C900023F4704343EA023224F0A00343EA011103
:103CA0008261016210BD10B5806B0021C185C184A5
:103CB000FFF749FA10BD01680C3151E8002F22F4DA
:103CC000907241E80023002BF5D10168143151E8CE
:103CD000002F22F0010241E80023002BF5D1016BF7
:103CE000012909D101680C3151E8002F22F010029E
:103CF00041E80023002BF5D1202180F83E1000215F
:103D00000163704708B590F83E10222901D00220C7
:103D100008BD82684FF480539A4201D1016921B1F4
:103D2000816A9A421BD04AB10AE00268816A5268ED
:103D3000C2F308020A80816A891C08E0026972B134
:103D40000268526802F07F020A70816A491C81622F
:103D5000C18D491E0904090CC18503D019E0026810
:103D60005268F1E70168CA6822F02002CA6001685F
:103D7000CA6822F48072CA6001684A6922F00102AE
:103D80004A61202180F83E10016B012903D0FFF722
:103D900053FC002008BD0021016301680C3151E88B
:103DA000002F22F0100241E80023002BF5D101681A
:103DB0000A68D20602D50A6849680091818DFFF72A
:103DC000C1F9E6E770B5044600680169E26821F4CC
:103DD0004051114301612169A068E26908436169AA
:103DE000114308432168CA6849F20C639A430243AD
:103DF000CA6020684169A26921F4407111434161A0
:103E000031492068884202D03049884202D1FEF709
:103E10005BFE01E0FEF748FEE269002319216425FC
:103E20003226B2F5004F626828D0A0FB0101930F43
:103E30009200FCF7C9FA0146B0FBF5F06FF01802EA
:103E4000504301EB800006EB0010B0FBF5F000F0F2
:103E5000F002B1FBF5F002EB0012B1FBF5F06FF0F0
:103E60001803584301EB800006EB0010B0FBF5F09F
:103E700000F00F0021681044886070BDA0FB0101B4
:103E800092185B41FCF7A0FA0146B0FBF5F0020185
:103E9000B1FBF5F06FF01803584301EB800006EB1F
:103EA000C000B0FBF5F000F0F80002EB4002B1FBFF
:103EB000F5F0584301EB800006EBC000B0FBF5F0D5
:103EC00000F00700D6E70000001001400014014098
:103ED00081628285C28500210164222280F83E2011
:103EE00080F83C10016921B10168CA6842F480720F
:103EF000CA6001684A6942F001024A610068C1680B
:103F000041F02001C160002070472DE9F041984642
:103F100017460E460446069D27E0681C25D02DB1A5
:103F2000FEF788FCA0EB0800A8421ED920680C30E0
:103F300050E8001F21F4D07140E80012002AF5D1AA
:103F40002068143050E8001F21F0010140E8001201
:103F5000002AF5D1202084F83D0084F83E0000209E
:103F600084F83C000320BDE8F0812068006836EA50
:103F7000000004D00020B842CFD00020F3E7012099
:103F8000F9E700000148FFF7DFB800001401002046
:103F90000148FFF7D9B8000058010020FEE703B43C
:103FA00001984100009850EAC12018BF04204A0D32
:103FB00018BF40F0010040F2FF72B2EB515F08BF42
:103FC00040F00200012808BF052002B07047090731
:103FD000090E002804DB00F1E02080F8001470478F
:103FE00000F00F0000F1E02080F8141D7047000081
:103FF00010B52F499FED2C1B2DED020B84B00598B9
:1040000020F000408842DCBF00209DED040B32DD33
:104010002849884209D1049840B94FF00100FCF7C3
:10402000FEFA00F03DFC06B010BD05DB9DED040B73
:1040300000F02AFC06B010BD68469DED040B00F0B0
:104040003BF810F0030011D0012818D09DED021BA1
:104050009DED000B02281AD000F04AFA51EC100B2B
:1040600000F092FE06B041EC100B10BD9DED021B5E
:104070009DED000B012000F06FFB06B010BD9DED23
:10408000021B9DED000B00F033FA06B010BD0120BD
:1040900000F062FB51EC100B00F076FE06B041EC34
:1040A000100B10BD00000000000000000000000028
:1040B000FB21E93F0000F07F2DE9F14F04462DED93
:1040C000020B2DED088B8AB09FEDE70B80ED020B04
:1040D000139EE74826F0004585420ADC9DED120B51
:1040E000002084ED000B0AB0BDEC088B03B0BDE8E6
:1040F000F08FE0489FEDE0AB9FEDE1BBA84247DDCC
:10410000E14F9FEDE39B9FEDE48B9DED120B53EC94
:104110001A2B51EC100B002E1CDD01F0D7F941ECED
:10412000100BBD4208D053EC1B2B51EC100B01F0CF
:10413000CDF9C4E900010BE053EC192B51EC100B45
:1041400001F0C4F953EC182B01F0C0F9C4E90001E7
:104150000120C8E700F056FE41EC100BBD4208D02C
:1041600053EC1B2B51EC100B00F04CFEC4E900018A
:104170000BE053EC192B51EC100B00F043FE53EC09
:10418000182B00F03FFEC4E900014FF0FF30AAE712
:10419000C348A84279DB9DED120B51EC100B00F0E7
:1041A000C9FB41EC180B9FEDC00B53EC102B01F039
:1041B00083F89FEDBF1B53EC112B00F023FE01F0A1
:1041C00021F8074601F04DF841EC190B53EC1A2B7E
:1041D00001F072F853EC182B01F06CF941EC180B5C
:1041E00053EC1B2B51EC190B01F066F8DFF8C8A259
:1041F00041EC100B4FEA15580125FA4453EC102BF3
:1042000051EC180B01F062F9032DC4E900013DD017
:10421000C1F30A5005EB4511A8EB000011398142AA
:1042200034DA0AEB051BB0EE48AA9BED000BF0EE6A
:1042300068AA53EC102B51EC190B01F03DF841EC3E
:104240001B0B51EC1A0B53EC1B2B01F03FF941EC0B
:10425000180B51EC1A0B53EC182B01F037F953ECF7
:104260001B2B01F033F99BED020B41EC1A0B53ECC5
:10427000102B51EC190B01F01FF853EC1A2B01F025
:1042800025F941EC100B6D1CB8E70EE0002EA8BF1D
:104290003846BFF628AF94ED000B51EC100B00F040
:1042A00073FDC4E9000178421DE7C6F3130040F432
:1042B000801EC6F30A50A0F2F530471100F01F052A
:1042C000C5F12000DDF848B0089000200690079066
:1042D0000520EC467949002D07EB0002794408BF20
:1042E00051F8221009D051F8223001EB8201AB4085
:1042F0004A68089922FA01F11943A1FB0E26A1FB95
:104300000B131A449A4234BF0123002303EB06081F
:104310000CEB8003D3E901A60E448E4234BF012189
:10432000002192448A4411B1924502D903E092459A
:1043300001D2012100E00021C3E901A641444CF86B
:104340002010011EA0F10100C4DC029800F1005011
:10435000850F0298DDE903678000DDF8148000F026
:1043600080FF41EC1A0B304600F092FF9FED541B8A
:1043700053EC112B00F0A0FF41EC1B0B384600F072
:1043800087FF9FED511B53EC112B00F095FF41EC83
:10439000180B404600F07CFF9FED4D1B53EC112B9A
:1043A00000F08AFF41EC190B51EC180B53EC192B60
:1043B00000F028FD53EC1B2B00F024FD53EC1A2BCE
:1043C00000F020FDCDE90801002008909DED080BCC
:1043D00053EC1A2B51EC100B01F078F853EC1B2B1B
:1043E00001F074F853EC182B01F070F853EC192B12
:1043F00001F060F89FED381B53EC112B00F05CFFCF
:104400009FED370B41EC180B53EC102B9DED080B77
:1044100051EC100B00F050FF53EC182B00F0F2FCA5
:104420009FED310B41EC180B53EC102B9DED080B5D
:1044300051EC100B00F040FF53EC182B00F0E2FCA5
:1044400041EC100B139810F0004F06D06D4251EC68
:10445000100B00F099FC41EC100B284684ED000B8A
:1044600041E6000000000000000000000000000025
:10447000FB21E93F7CD9024000004054FB21F93F79
:104480003163621A61B4D03DFB21F93F00000000A6
:104490000000601A61B4D03D7370032E8A19A33BEB
:1044A000FB2139410000000083C8C96D305FE43F43
:1044B000000000000000E03F3A18000088170000EC
:1044C000000000000000103E000000000000103C52
:1044D000000000000000103A182D4454FB21F93D63
:1044E0003326A611460B113C00000054FB21F93D78
:1044F00010B52DED040B2DED088B82B0B0EE419A76
:10450000F0EE619A0B9820F000449FED4BABB4F1B4
:10451000795F11DA9DED0A0B51EC100B00F072FE81
:10452000002801BFB0EE4A0AF0EE6A0A02B0BDEC04
:10453000088B04BF04B010BD9DED0A0B53EC102B8B
:1045400051EC100B00F0B8FE41EC180B3C48062172
:10455000B0EE480AF0EE680A784400F081F853ECB7
:10456000182B51EC100B00F0A7FE9DED0A0B41EC4F
:104570001B0B53EC192B51EC100B00F09DFE41EC82
:10458000190B53EC1B2B51EC180B00F095FE53EC60
:10459000192B00F09BFF9FED2C0B41EC190B53ECFA
:1045A000102B51EC180B00F087FE41EC100B284843
:1045B000844210DA53EC192B51EC100B00F086FFFB
:1045C00053EC1A2B00F076FF41EC100B02B0BDEC5F
:1045D000088B04B010BD1F48A042BCBF9FED1E1B3E
:1045E0008DED001B06DBA4F500100190002000906B
:1045F0009DED001B51EC100B53EC112B00F066FFEE
:104600009DED000B41EC180B53EC102B51EC1A0BE9
:1046100000F05CFF41EC1A0B53EC192B51EC180B1A
:1046200000F054FF53EC1A2B00F044FF41EC100B48
:10463000CCE7000000000000000000000000F03F98
:10464000AC14000000000000000000000000E03F8B
:104650003333D33F0000E93F000000000000D23FA9
:1046600070B504462DED028B4D1E00EBC500B0EE7B
:10467000408AF0EE608A90ED000B35F0060017D00E
:1046800053EC182B51EC100B00F016FE41EC100B04
:104690006D1E04EBC50090ED001B51EC100B53ECAC
:1046A000112B00F0AFFB41EC100B35F00600E7D109
:1046B000022D36D0042D1CD0062D1CBFBDEC028B64
:1046C00070BD53EC182B51EC100B00F0F5FD94ED80
:1046D0000A1B53EC112B00F095FB53EC182B00F048
:1046E000EBFD94ED081B53EC112B00F08BFB41EC20
:1046F000100B53EC182B51EC100B00F0DDFD94ED7A
:10470000061B53EC112B00F07DFB53EC182B00F033
:10471000D3FD94ED040B53EC102B00F073FB41EC34
:10472000100B53EC182B51EC100B00F0C5FD94ED61
:10473000021B53EC112B00F065FB53EC182B00F01F
:10474000BBFD94ED001B53EC112B00F05BFBBDECAB
:10475000028B41EC100B70BD31B504462DED040BFE
:104760002DED0A8BB0EE41BAF0EE61BA0B989DEDDB
:104770000A0B20F00040B0F1795F0DDA51EC100B1C
:10478000FFF70DFC042808BF00F09AF89DED0A0B16
:10479000BDEC0A8B05B030BD53EC102B51EC100B67
:1047A00000F08AFD41EC180B9DED0A0B53EC182B21
:1047B00051EC100B00F080FD41EC190B2C48B0EED1
:1047C000480AF0EE680A05217844FFF749FF9FED9B
:1047D0002ACBB0EE40AAF0EE60AA9CB353EC1C2B9F
:1047E00051EC190B00F068FD41EC1C0B53EC1A2B3B
:1047F00051EC190B00F060FD9FED210B41EC190B02
:1048000053EC102B51EC1B0B00F056FD53EC192B05
:1048100000F05CFE53EC182B00F04EFD53EC1B2B0C
:1048200000F054FE53EC1C2B00F050FE9DED0A1BD3
:1048300053EC112B00F03EFEBDEC0A8B05B041ECB1
:10484000100B30BDFFE753EC1A2B51EC180B00F0A6
:1048500033FD53EC1C2B00F0D5FA53EC192B00F070
:104860002BFD9DED0A1B53EC112B00F0CBFAE3E777
:104870003413000000000000495555555555C5BF7B
:10488000000000000000E03F10B553EC102B51EC8D
:10489000100B00F0B7FA41EC100B10BD0000000047
:1048A0009FED050B10B553EC102B51EC100B00F0E5
:1048B00051FB41EC100B10BD000000000000000097
:1048C0009FED050B10B553EC102B51EC100B00F0C5
:1048D000F3FC41EC100B10BD0000000000000010C4
:1048E00030380A2801D201207047002070470000AC
:1048F00070B5094DFF231A4605F5807606E000BF26
:1049000010F8014B54402A5D5A40335D491E89B26C
:10491000F6D242EA032070BD9E57000804490022E7
:10492000C9680B685A6209684A6A8242FCD37047B8
:104930000000002082B0CDE9000121F0004001908C
:104940009DED000B02B051EC100B70472DED028B6A
:1049500086B0FDF77DFFFFF7BFF8FEF7E1FEAA483E
:10496000A849002401604FF4E131C0E901140C258D
:10497000C460C0E904458461C461FEF719FD38BB19
:10498000A248016841F4001101600068002200F4AF
:10499000001000900E211020FDF7BAFF1020FDF747
:1049A000A9FF00220E211120FDF7B2FF1120FDF713
:1049B000A1FF95489649443801609649C0E9011421
:1049C000C460C0E904458461C461FEF7F1FC08B12C
:1049D000FDF778FCFEF7F0FE8FA000F055F98A4B4A
:1049E0004FF480728C3B904903F14800FEF74EFF74
:1049F0008E48FEF794FF6420FDF704FE8B4850308C
:104A00000490FEF78CFF6420FDF7FCFD884D4FF409
:104A100080512846FDF700FF4FF400512846FDF76E
:104A2000FBFE8248FEF71AFF0120FDF7EBFD04981C
:104A3000FEF714FF05206421CDE900010246029033
:104A40006FF037037948FEF781FF784901220C396E
:104A50006D48FEF7DBFD754FDFF8D0810C3F3878ED
:104A600031380728FBD2DFE800F0040F6D7C969FF9
:104A7000A7006E48FEF7F2FE4FF4FA70FFF74EFF04
:104A80000498FEF7EBFE95E0FDF7D4FE814600F0BA
:104A9000E8FB41EC180BB86800F002FE9FED651BC7
:104AA00053EC112B00F008FC53EC182B00F004FC25
:104AB0009FED621B53EC112B00F04CFA41EC100BF4
:104AC000FFF796FAB0EE408AF0EE608A786800F060
:104AD000E7FD53EC182B00F0EFFB9FED5A1B53EC56
:104AE000112B00F0E9FB00F08DFB05B24FF4E166FD
:104AF000324629464D48FEF792FE4C48FEF7E1FE4D
:104B0000D8F8180000F0CCFDCDE900012A4649464E
:104B10004EA000F0B9F8324629460498FEF77FFE11
:104B20000498FEF7CEFED8F8680000F0B9FD41EC1D
:104B3000100B49A053EC102B00F0A6F80120FDF754
:104B400061FD8CE704213948FEF7DEFE0120FDF708
:104B500059FD04210498FEF7D7FE41A000F094F817
:104B600028E03248FEF7ADFE0498FEF7AAFED8F81A
:104B7000680000F095FD05460E46D8F8180000F0D4
:104B80008FFD41EC100BCDE9005653EC102B35A0F6
:104B900000F07AF80EE02548FEF769FE98F8481014
:104BA00033A000F071F805E00223002201211F4824
:104BB000FEF796FE3C7052E7FDF73CFE83461B482D
:104BC000FEF770FE44F250611848FEF7D9FED8F89F
:104BD000240000F065FD81468A46D8F8200000F0E8
:104BE0005FFD05460E46D8F81C0000F059FD41EC6B
:104BF000100B8DE8600653EC102B59461DA000F0F9
:104C000043F82CE7004800405801002030380240AB
:104C100000440040A02526007465737420737461FD
:104C200072742E2E2E0A0000000002401C0000208C
:104C3000000C0240182D4454FB21194000000000D4
:104C400000408F40000000000000594025642025EE
:104C50006420252E32662000252E32660A000000D0
:104C60004F4B0A00252E326620252E32660A0000A0
:104C700025730A00256420252E326620252E3266F3
:104C800020252E32660A00000FB4402010B5FBF735
:104C900045FB044603AA0299FBF70EFC2046FBF7EE
:104CA0001DFC82B2642321460448FEF7DDFC204649
:104CB000FBF763FB10BC5DF814FB000058010020FB
:104CC0001FB53E238DF8003068B379292BD00078CA
:104CD0008DF8010008208DF802008DF8031010688F
:104CE00001909088ADF8080090798DF80A000B21AA
:104CF0006846FFF7FDFD8DF80B000C4C000A8DF89F
:104D00000C002088FFF70AFE01226188A068FDF7E9
:104D10008BFD2088FFF702FE05230D22694660689F
:104D2000FEF7A2FC1FBDCD20D2E70000000000204E
:104D300010B500290AD00878002807D00548784423
:104D4000FCF702FD002801D0002010BD0248784485
:104D500010BD0000C60E0000BE0E000010B50029F8
:104D60000AD00878002807D005487844FCF7ECFC06
:104D7000002801D0002010BD0248784410BD00007A
:104D8000B60E0000AE0E000081F00041704780F0CA
:104D90000040704721F00041704720F0004070470C
:104DA00021F00042A2F16052B2F5801F01F00043F1
:104DB00028BFD2F17F6C0BD95FEA001C43EAC20224
:104DC00042EB507018BF704728BF20F001007047B9
:104DD000B2F5801FBCBF184670474FEA410C1CF566
:104DE000001F02D2084600F0D1BC70B500F00EFBE7
:104DF00000000089FFF7F6BF4FF00040A0F58000EB
:104E00007047000010B591EA030F48BF83F00043DC
:104E100000F16483841A71EB030C05D2121943EB81
:104E20000C03001B61EB0C01DFF824E14FEA115485
:104E3000A4EB135C1EEA430F18BF9EEA445F73D0D5
:104E400023EA0E03DCF1200E21EA045143F480131F
:104E500032D322FA0CFE10EB0E0023FA0CFE41EBCB
:104E60000E01CCF1200E03FA0EFE10EB0E0051F1F4
:104E70000001B1F5801FCCF1200E32D201EB0451BC
:104E800012FA0EF2BDE8104058BF7047401C38BF00
:104E90005FEA420218BF7047002814BF20F00100EB
:104EA00041F100014FEA410313F5001F38BF70477D
:104EB000A1F1C04100F0F8BA012A43EB0302ACF1C2
:104EC000200CDCF11F0E32BF4FF0000E23FA0CF362
:104ED00010EB030041EB0451B4EB115FD0D0A1EB18
:104EE000045101F5801149085FEA300001EB0451DB
:104EF0000ED350F1000038BF12FA0EFE08D1BDE803
:104F00001040C9E7401C38BF5FEA4202CAD1C3E77C
:104F1000BDE810404FEA410313F5001F38BF70474A
:104F2000A1F1C04100F0C0BA9EEA445F08D011EA86
:104F30005E0FBDE8104004BF01F000410020704743
:104F4000BDE8104070B500F061FA00BF64FBBE3EE2
:104F50000000E0FF2DE9C04130B4DFF8A0C23CEA18
:104F6000111418BF3CEA131400F0EC8081EA030529
:104F70001CEA111444EAD57418BF1CEA131500F09A
:104F8000C780A4EB05044FF0004545EAC12145EA7E
:104F9000C32341EA505143EA525304F17F749942CA
:104FA00004F500344FEAC0204FEAC22208BF904205
:104FB00000F09C804FEA13650FF24016765D4FEAD1
:104FC000134506FB05F7C7F1807706FB07F74FEAA5
:104FD000D737A7FB03687642C8F58038A7FB06CE13
:104FE00038BFA8F1010807FB08E64FF0000EA6FB4A
:104FF000028CE6FB03CEDCF1000CCEF1004E38BF94
:10500000AEF1010EA6FB0C584FF000074FF0000563
:10501000E6FB0E87A1FB08C6A0FB07CE16EB0E062B
:1050200045F10005E1FB076515F1E04E7EBFA4F5F3
:1050300080345FEA46066D4116F1800745F10005B0
:105040004FEA17274FEA066647EA0567A6F1DE46EC
:10505000B6F1805F4FEA15251FD9384624F0010CC0
:1050600005EBC471BCF1FE6F01EB0C1102D8F0BC72
:10507000BDE8008124425CBF01F5801E9EEAC47F2A
:1050800002D4F0BCBDE80081244238D4F0BCA1F1C8
:10509000C041BDE8004100F007BA4FEAD22242EA1F
:1050A00043524FEAD323A7FB02864FEAD02040EABF
:1050B000415007FB03661EEA0E0F4FEAD12105FBA4
:1050C000026658BFA6EB0056B6EB00564FEA520EEA
:1050D0004EEAC37E18EB0E0E56EB530EBDD518EB01
:1050E00002085E417F1C55F10005B6E74FF48015BC
:1050F0004FF000074FF000064FF00008ADE7F0BC9E
:105100004FF0000001F1C04101F00041BDE8008115
:1051100011EA0C1F0CEA131500D00CE013EA0C1F67
:1051200000F025804FF00000F0BC81EA030101F09F
:105130000041BDE80081F0BCBDE8004181EA030107
:1051400000F0B2B9F0BCBDE8004170B500F05EF906
:10515000097EFC3E00F007B881EA03014FF0000031
:1051600001F00041704781EA030100F09DB9F0BCF5
:10517000BDE800414FF0000021497047FFFDFBF9F9
:10518000F7F5F4F2F0EEEDEBE9E8E6E4E3E1E0DE7A
:10519000DDDBDAD8D7D5D4D3D1D0CFCDCCCBCAC8EC
:1051A000C7C6C5C4C2C1C0BFBEBDBCBBBAB9B8B713
:1051B000B6B5B4B3B2B1B0AFAEADACABAAA9A8A806
:1051C000A7A6A5A4A3A3A2A1A09F9F9E9D9C9C9BD4
:1051D0009A9999989797969595949393929191907F
:1051E0008F8F8E8E8D8C8C8B8B8A89898888878710
:1051F0008685858484838382828181800000FF0785
:105200000000F87F4FEA41034FEA5353A3F5806350
:10521000D3F11E03C8BFD3F1210C0CDD4FF00042C7
:1052200042EAC12242EA505232FA03FC8CEAE17CA3
:10523000ACEBE1707047102BC4BF0020704703F542
:10524000787CBCF1FF3F04D06FF0004282EA21007D
:10525000704770B500F0DAF849922480002070475A
:10526000F2E710F0004248BF4042B0FA80F310FA73
:1052700003F10AD0C3F11D0303F580634FEA4150E7
:1052800002EB035202EBD12170474FF00000704750
:10529000B0FA80F310FA03F10AD0C3F11D0303F54D
:1052A00080634FEA41504FEA035202EBD12170472D
:1052B0004FF0000070470000DFF848C170B51CEAED
:1052C000111E1EBF1CEA13159EEA0C0F95EA0C0F67
:1052D00000F06F8081EA030423EA4C134EEAD47E87
:1052E00021EA4C1141F4801143F48013AE44A1FB38
:1052F000024CA0FB0365AEF17F7E361955EB0C0521
:10530000A1FB034C4CF10003A0FB021C16EB0C06A6
:10531000654153F10003094218BF46F0010613F43A
:10532000007F0BD14FEA03314FEA0530340341EAE5
:10533000155140EA16506FF003020AE04FEAC3210C
:105340004FEAC520F40241EA555140EA56506FF049
:10535000020202EB2E4201EB025585EACE710AD021
:105360005FEA440C18BF24F0004450F1000041F102
:10537000000120EAD47040F2FE7C624500D270BD8C
:10538000A84214BF4FF080444FF04044002E08BFA5
:105390000024BEF1806FA8BFA1F1C041BDE87040FC
:1053A00080F282804FF0000001F1C04101F0004125
:1053B00070479EEA0C0F0CEA131518BF95EA0C0F04
:1053C00006D04FF0000081EA030E0EF0004170BDE0
:1053D00000F01CF88900013E00F007B800F009B8A1
:1053E0004FEA430C5FEA5C5C08D081EA030100F0FD
:1053F0005BB84FEA410C5FEA5C5CF6D14FF000000D
:10540000014970470000FF070000F87F0EF1020E0F
:105410002EF0030E5EF8046B364205D4012A43EBEE
:10542000030515F5001F12D8012841EB010C1CF5EE
:10543000001F0CD80ED14FEAD17C15F5001F0CEBE4
:105440004C0C0CF1020C08BF4CEBD37C04E04FF089
:10545000080C01E04FEAD37C0CEB4C0526FA05F66C
:1054600006F00706B6F1040C06D20EEB860CBDE87A
:1054700070404CF0010C6047DFE80CF0090B0202B1
:105480004FF000414FF00000A1F5002170BD19461A
:105490001046012851EB010418BFD4F5001484BF55
:1054A000002001F0004170BD0808A0F500114FEA8E
:1054B0003101704791EA030F10B581F000413FF5CB
:1054C000A9AC83F0004300F009B8000010B591EAE0
:1054D000030F48BF83F000433FF59CAC841A71EB87
:1054E000030C07D212198CF0004C43EB0C03001B89
:1054F00061EB0C01DFF8A4E14FEA1154A4EB135C5B
:105500001EEA430F18BF9EEA445F00F0B08023EA12
:105510006E03524221EA0451C3EB6E0338BF5B1E97
:10552000DCF1200E25D322FA0CFE10EB0E0043FA1C
:105530000CFE41EB0E01CCF1200E03FA0EFE10EB37
:105540000E0051F10001CCF1200E29D412FA0EF216
:1055500001EB0451BDE8104058BF7047401C1CBF10
:10556000B2F1004F704700280CBF491C20F0010029
:10557000704712EB020E43EB030218BF4FF0010E0F
:105580004EEA4202ACF1200CDCF11E0E54D943FA73
:105590000CFE10EB0E0051F1FF31CCF11E0ED5D5F3
:1055A0000EF1010E12FA0EFE404141EB010101EB3A
:1055B000445C5FEA5C5C10D910EBDE7001EB0451D7
:1055C00038BFBEF1004FBDE8104018BF704700283B
:1055D0000CBF491C20F00100704730D24FEAD42C98
:1055E00011F5001124F400641BD0B1FA81F20B3ADA
:1055F000A41AA41ED2F12003914030FA03F31943F8
:10560000904001EBCC71002C01EB0451BDE810403F
:10561000A8BF704701F1C0414FF0000001F0004108
:105620007047B0FA80F310FA03F100D110BDE41A0C
:10563000173C4805C90AE4E701EB045110BD4910C5
:1056400001EB0451BDE810404FEA300002E04FF09A
:10565000000170474A0008BF0042F8D0B2F5001FB1
:1056600028BF704701F000414FF0000070479EEAEC
:10567000445F07D011EA5E0FBDE8104004BF00216F
:1056800000207047BDE8104070B5FFF7BFFE00BFB7
:1056900040DFF63E83F00041104670470000E0FF17
:1056A00043004FEAD30C4FEA3C0C43401FBF400776
:1056B0000CF1605113F0FE4F70471CF0006F03D1E6
:1056C00000200CF0004170470CF0004343EA50709A
:1056D00010B540EACC0000F00EF800BF00000092C8
:1056E0004FEA0001FFF7E0BE4FF000414FF000002D
:1056F000A1F5002170470EF1020E2EF0030E5EF8A8
:10570000044B244204D44FEA4102B2F17F4F11D836
:105710004FEA4003B3F17F4F0CD80ED14FEAD07C53
:10572000B2F17F4F0CEB4C0C0CF1020C08BF4CEBB0
:10573000D17C04E04FF0080C01E04FEAD17C0CEB87
:105740004C0324FA03F404F00704B4F1040C06D269
:105750000EEB840CBDE810404CF0010C6047DFE814
:105760000CF0070802024FF00040A0F5800010BDC9
:105770000846420018BFD2F1807288BF00F0004096
:1057800010BD4FF04070E1EE100A7047FF2141EA72
:10579000D050C0057047FBF794BBFBF7C9BC00C1F4
:1057A000814001C0804101C0804100C1814001C0F1
:1057B000804100C1814000C1814001C0804101C0E1
:1057C000804100C1814000C1814001C0804100C1D1
:1057D000814001C0804101C0804100C1814001C0C1
:1057E000804100C1814000C1814001C0804100C1B1
:1057F000814001C0804101C0804100C1814000C1A1
:10580000814001C0804101C0804100C1814001C090
:10581000804100C1814000C1814001C0804101C080
:10582000804100C1814000C1814001C0804100C170
:10583000814001C0804101C0804100C1814000C160
:10584000814001C0804101C0804100C1814001C050
:10585000804100C1814000C1814001C0804100C140
:10586000814001C0804101C0804100C1814001C030
:10587000804100C1814000C1814001C0804101C020
:10588000804100C1814000C1814001C0804100C110
:10589000814001C0804101C0804100C1814000C001
:1058A000C101C30302C2C60607C705C5C404CC0CA8
:1058B0000DCD0FCFCE0E0ACACB0BC90908C8D81818
:1058C00019D91BDBDA1A1EDEDF1FDD1D1CDC14D428
:1058D000D515D71716D6D21213D311D1D010F03058
:1058E00031F133F3F23236F6F737F53534F43CFC68
:1058F000FD3DFF3F3EFEFA3A3BFB39F9F83828E818
:10590000E929EB2B2AEAEE2E2FEF2DEDEC2CE424E7
:1059100025E527E7E62622E2E323E12120E0A06057
:1059200061A163A3A26266A6A767A56564A46CAC27
:10593000AD6DAF6F6EAEAA6A6BAB69A9A86878B897
:10594000B979BB7B7ABABE7E7FBF7DBDBC7CB474A7
:1059500075B577B7B67672B2B373B17170B0509057
:1059600091519353529296565797559594549C5CE7
:105970005D9D5F9F9E5E5A9A9B5B99595898884897
:1059800049894B8B8A4A4E8E8F4F8D4D4C8C448467
:105990008545874746868242438341818040000691
:1059A00010160006101600000000000000000102A2
:1059B00003040607080900000000010203040000B8
:1059C000000000000000000030313233343536373B
:1059D0003839414243444546403058003031323333
:1059E0003435363738396162636465664030780033
:1059F0000400000800000000000000020001000098
:105A000010000000000000004C5555555555A53FAD
:105A10007751C1166CC156BF9015CB19A001FA3E43
:105A2000AD529C804F7E92BEC4B1B4BD9EEE213E6D
:105A3000D43888BEE9FAA8BD00004054FB21F93FE4
:105A40003163621A61B4D03D0000601A61B4D03D88
:105A50007370032E8A19A33B0000002E8A19A33B02
:105A6000C14920259A837B39000000000000000016
:105A70006E83F9A22915444ED15727FCC0DD34F5B9
:105A8000999562DB4190433CAB6351FE61C5BBDE3F
:105A90003A6E24B7E0D24D42EA2E49061C92D10953
:105AA0001CEB1DFE3EA729B1F53582E88444BB2ED0
:105AB00026709CE9417E5FB439D69139F43953831D
:105AC0008B5F849C3B28F9BDFF97F81F0F9805DE7C
:105AD0008B112FEF1F6D0A5ACF7E366DB709CB277A
